:020000040800F2
:10000000B0060020ED010008F72A0008D3220008FE
:10001000F52A0008F9020008B13D000800000000C0
:10002000000000000000000000000000D72E0008C3
:10003000FB02000800000000C12B0008D92E0008B8
:10004000070200080702000807020008070200086C
:10005000070200080702000807020008070200085C
:10006000070200080702000807020008070200084C
:10007000070200080702000807020008070200083C
:10008000070200080000000007020008070200083D
:10009000070200080702000807020008070200081C
:1000A000070200080702000807020008070200080C
:1000B00007020008070200080702000807020008FC
:1000C00007020008070200080702000807020008EC
:1000D00007020008A53D0008070200080702000803
:1000E00007020008070200080702000807020008CC
:1000F00007020008070200080702000800000000CD
:1001000000000000070200080000000007020008CD
:1001100007020008000000000702000807020008AC
:10012000070200080702000807020008070200088B
:10013000070200080000000000000000070200089D
:10014000070200080702000800000000000000008D
:10015000000000000000000000000000000000009F
:10016000000000000000000000000000070200087E
:10017000070200080000000000000000000000006E
:10018000000000000702000800000000000000005E
:10019000000000000000000000000000000000005F
:1001A000000000000000000007020008070200082D
:1001B000070200080702000807020008000000000C
:1001C000000000000702000800000000000000001E
:1001D0000702000807020008DFF80CD000F07AF8E8
:1001E00000480047513F0008B006002006488047FD
:1001F00006480047FEE7FEE7FEE7FEE7FEE7FEE70C
:10020000FEE7FEE7FEE7FEE7452F0008D9010008FC
:100210002DE9F05F0546002092469B46884606463B
:10022000814640241BE0284641464746224600F0CE
:1002300041F853465A46C01A914110D31146184608
:10024000224600F028F82D1A67EB01084F46224697
:100250000120002100F01FF817EB00094E41201E7D
:10026000A4F10104DFDC484631462A464346BDE896
:10027000F09FD2B201E000F8012B491EFBD270477B
:100280000022F6E710B513460A4604461946FFF762
:10029000F0FF204610BD202A04DB203A00FA02F1CC
:1002A000002070479140C2F1200320FA03F3194364
:1002B00090407047202A04DB203A21FA02F0002106
:1002C000704721FA02F3D040C2F120029140084366
:1002D00019467047064C074D06E0E06840F0010300
:1002E00094E8070098471034AC42F6D3FFF778FF44
:1002F0000453000824530008FEE77047002240F62C
:10030000B83306E00021491C89B29942FBD3521C44
:1003100092B28242F6D3704772B6FEE72DE9F047FB
:10032000044690F858009CB00E464FF00009012892
:1003300015D0012084F858000025179518952068DD
:100340004FF0A04840450ED1284F0097384602F0A4
:10035000F5F98246206802F0F1F960B10EE0022062
:100360001CB0BDE8F087E06D40F02000E06584F847
:1003700058500120F4E7BAF1000F09D0E06D40F0C9
:100380002000E0654FF0010984F858504846E7E73F
:100390001748326840F61F71002A826822F46042D2
:1003A00016D094F8383042EA433273681A438260B8
:1003B000D8F80820BB6802F0010203F001031A43D9
:1003C000E2D1B36832681A4383688B431A430BE067
:1003D0008260D8F80820BB6802F0010203F0010334
:1003E0001A43D1D182688A438260CDE70001005070
:1003F000000300502DE9F84F00270446009790F8BD
:100400005800DFF8D8930D46B846012811D00126D0
:1004100084F85860206802F08DF960B1E06D40F01A
:100420002000E0655FF0010784F858803846BDE899
:10043000F88F0220FBE7D5E900210C23206803EAAE
:1004400091131844036B01F01F014FF01F0C0CFABD
:1004500001FCC2F3846223EA0C038A401343036362
:10046000206802F067F98246206802F05FF95AEAD4
:1004700000003CD1AA6829682068B2F1004F37D04B
:1004800002F060F92068416921F000414161206873
:100490006969C268C2F3C102520091402A69042A04
:1004A00031D000EB82002B68026EDFF834C303F01A
:1004B000F84302EA0C020B431A4342F00041016682
:1004C00020682A69A96900EB8200026E22F080721E
:1004D0000A430266297F22682869012910D0002179
:1004E00002EB8000026E22F000720A4302667DE099
:1004F000002202F027F92068416941F00041C5E778
:100500004FF00071ECE7002102F00AF94003206887
:100510004FF0000172D002F003F990FAA0F0B0FAA7
:1005200080F1286842036ED090FAA0F0B0FA80F013
:10053000814204D100221146206802F012F9012103
:10054000206802F0EDF8400320684FF001015DD013
:1005500002F0E6F890FAA0F0B0FA80F128684203C1
:1005600059D090FAA0F0B0FA80F0814204D1002274
:100570000121206802F0F5F80221206802F0D0F88D
:10058000400320684FF0020148D002F0C9F890FA09
:10059000A0F0B0FA80F12868420344D090FAA0F0AD
:1005A000B0FA80F0814204D100220221206802F0DA
:1005B000D8F80321206802F0B3F8400320684FF018
:1005C000030133D002F0ACF890FAA0F0B0FA80F159
:1005D000286842032FD090FAA0F0B0FA80F0814250
:1005E00004D100220321206802F0BBF82068816852
:1005F00011F0010F22D0A8E000E004E002F090F832
:10060000C0F384618DE7C0F3846091E702F088F85D
:10061000C0F38461A2E7C0F38460A6E702F080F82B
:10062000C0F38461B7E7C0F38460BBE702F078F8F9
:10063000C0F38461CCE7C0F38460D0E7EB6829683D
:100640004B4550F8B03FC1F3120101D10B4300E01C
:100650008B430360E868484577D1286841031CD084
:1006600090FAA0F1B1FA81F1491C01F01F010929AA
:100670004FEA403132D8002912D000BF90FAA0F1E1
:10068000B1FA81F101F1010101F01F0106FA01F651
:1006900009D100BFC0F3846109E0C0F38461E3E7DE
:1006A000C0F38461EEE790FAA0F1B1FA81F101F1B3
:1006B000010101F01F0146EA816102D1C0F38460AB
:1006C00003E090FAA0F0B0FA80F000F1010000F031
:1006D0001F0000EB400041EA005132E000290ED03B
:1006E00090FAA0F1B1FA81F101F1010101F01F01CD
:1006F00006FA01F606D100BFC0F3846106E0C0F33C
:100700008461F1E790FAA0F1B1FA81F101F1010100
:1007100001F01F0146EA816102D1C0F3846003E069
:1007200090FAA0F0B0FA80F000F1010000F01F0094
:100730002C4A00EB400002EB005041EA000141F07E
:100740000071AA68206801F0FDFF27482A6802426C
:100750003FF46AAE25488168254B01F0E0719A426A
:1007600002D0244B9A421CD10B021AD42268B2F157
:10077000A04F7FF459AE826841F4000122F0E0728C
:100780000A4382601C481D490068B0FBF1F0401C20
:1007900000EB4000800000E0401E00900028FBD1EC
:1007A00042E6174D174BAA4207D1CD0105D4226866
:1007B0009A42F5D041F0807109E0134DAA42EFD181
:1007C0004A02EDD422689A42EAD041F4800182685C
:1007D00022F0E0720A43826026E6000000007F40BB
:1007E00000F0FF03000020FE00000880000300501E
:1007F000000021C31000C09028000020400D03001D
:10080000000052C700010050000084CBF8B54FF043
:10081000000504002E46009502D0E06D10B107E0FF
:100820000120F8BD204600F0EFF8266684F85860F5
:1008300020688168C1F3407119B181686A4A11402A
:10084000816020688168C1F3007189B98168674A55
:10085000114041F080518160654866490068B0FBF5
:10086000F1F04000801C00E0401E00900028FBD109
:1008700020688168C1F3007141B9E16D41F0100158
:10088000E165216E41F001012166012501F052FF71
:10089000E16DC90600D430B1E06D40F01000E065B4
:1008A00001252846F8BDE06D20F4807040F002007C
:1008B000E0652068806810F0010F11D14FF0A04072
:1008C00080684D4900F00100896801F0010108438A
:1008D00006D14A486168826822F47C120A43826029
:1008E000E168E06B627F0843A16841EA4231084356
:1008F00094F8241040EA0140012904D1218D404A96
:1009000002EB41410843E16A29B101F47871226B9D
:10091000014342EA01002168CA683A4B1A40024387
:10092000CA6020680169626B21F040611143016176
:10093000206801F0FFFE0646206801F0F7FE304314
:100940002ED1207F94F83810800340EA41022068BD
:10095000C16844F2020399431143C1602069002831
:10096000206801690AD041F480310161206850F8A3
:10097000C01F22696FF30D01114307E021F480319C
:100980000161206850F8C01F6FF30D01016094F8F9
:10099000400001280CD02068016921F001010161AB
:1009A000606901282068016B21F00F0111D013E06C
:1009B000D4E911010843D4E9131211430843216813
:1009C0000A6940F2FC739A43104340F00100086149
:1009D000E6E7226A521E11430163E06D20F0020037
:1009E00040F00100E0655CE7C0FFFF5FC0FFFF7FF4
:1009F00028000020400D03000001005000030050BB
:100A00000000FEFF0740F0FF2DE9F04397B00446D9
:100A1000142111A8FFF734FC44216846FFF730FC8D
:100A20004FF0005021682D4D0327DFF8B490861356
:100A30002C4C4FF00008B1F1A04F10D02A4A91423F
:100A400048D100960F90684600F000FB08B1FFF710
:100A500063FC2868401C2860012824D02BE0009605
:100A60000F90684600F0F2FA08B1FFF755FC2868CD
:100A7000401C2860012807D1E06C40F40050E0647D
:100A8000E06C00F400501690E06C40F00200E0646E
:100A9000E06C11A900F0020016904FF4805081E83C
:100AA0008101484614E0E06C40F40050E064E06CE2
:100AB00000F400501690E06C40F00200E064E06C3E
:100AC00011AA00F00200169082E8C00111A9484660
:100AD00000F090F817B0BDE8F0830000040000209B
:100AE00000040048001002400001005010B590F8CA
:100AF000253000210122022B03D00421C1630121F2
:100B000022E003681C6824F00E041C60836C1C68DF
:100B100024F480741C6003681C6824F001041C60C9
:100B200090F84430046C03F01F0302FA03F363608F
:100B3000D0E913345C60436D33B11C6824F48074D5
:100B40001C60D0E916345C6080F82520002280F813
:100B50002420084610BD70B590F8252000240121FE
:100B60002346022A07D00422C26380F8251080F8A9
:100B70002430012429E00268156825F00E0515606F
:100B80000268156825F001051560826C156825F46A
:100B90008075156090F84420056C02F01F0201FA80
:100BA00002F26A60D0E913255560426D32B11568D2
:100BB00025F480751560D0E91625556080F825105C
:100BC00080F82430816B01B18847204670BD000059
:100BD00070B5044600F03CF90546601C02D004489C
:100BE0004068044400F034F9401BA042FAD370BDC1
:100BF0001C0000202DE9F04FDFF820920023012691
:100C00000324A9F1040B85B00F2709F1040AABF105
:100C1000040EFAE006FA03F52A407CD091F804C0ED
:100C20000CF0030CBCF1010F02D0BCF1020F26D175
:100C3000D0F808C0CDF800C04FEA430C04FA0CF815
:100C4000CDF810C0DDF800C02CEA080CCDF800C0CB
:100C5000D1F80C80DDF810C008FA0CF8DDF800C0FF
:100C600048EA0C08C0F80880D0F804C02CEA050C4B
:100C70000D79C5F300159D4045EA0C0545600D79D9
:100C8000ED43AD070ED0C5684FEA430804FA08FCEF
:100C900025EA0C05D1F808C00CFA08FC4CEA050C52
:100CA000C0F80CC00D7905F00305022D16D1DD0842
:100CB00000EB850CCDF808C0DCF820805D074FEA1A
:100CC000D56C07FA0CF528EA05080D6905FA0CF54C
:100CD000DDF808C045EA0805CCF8205005684FEA61
:100CE000430CCDF808C004FA0CFC25EA0C0591F879
:100CF00004C00CF00308DDF808C008FA0CF848EA54
:100D00000508C0F800804D6815F4403F7CD0444D84
:100D1000D5F860C000E077E04CF0010CC5F860C089
:100D20002D6E23F0030C05F0010500953D4D654443
:100D30000295AD684FEA837C4FEA1C7807FA08FCFD
:100D400025EA0C05B0F1904F06D0DFF8DCC0604515
:100D500005D14FF0010C20E04FF0000C1DE0DFF852
:100D6000CCC0604502D14FF0020C16E0DFF8C0C0E5
:100D7000604502D14FF0030C0FE0DFF8B8C06045CA
:100D800002D14FF0040C08E0DFF8ACC0604502D19E
:100D90004FF0050C01E04FF0060C0CFA08FC4CEA91
:100DA000050C029DC5F808C0D9F80050CC46D1F812
:100DB000048095435FEAC82800D51543CCF800505D
:100DC000DAF80050D446D1F8048095435FEA8828C9
:100DD00000D51543CCF80050DBF80050DC46D1F8C4
:100DE000048095435FEA883800D51543CCF800505D
:100DF000DEF80050F446D1F8048095435FEAC83825
:100E000000D51543CCF800505B1C0A6832FA03F594
:100E10007FF400AF05B0BDE8F08F0000080401408A
:100E20000010024000000140000400480008004893
:100E3000000C0048001000480014004800690840F9
:100E400000D0012070470AB181617047816270470C
:100E500001488068704700001C000020024881683B
:100E600042681144816070471C00002010B50024C6
:100E7000032000F073F80F2000F008F808B10124F7
:100E800001E000F025F8204610BD000070B50E4EC0
:100E900005460024706898B14FF47A71B1FBF0F008
:100EA0000A490968B1FBF0F000F062FD40B9102D6D
:100EB00006D200222946501E00F030F8356000E0CE
:100EC0000124204670BD00001C00002028000020E6
:100ED0000A4882B0016E41F001010166016E01F025
:100EE00001010091816D41F080518165806D00F0BC
:100EF0008050009002B000F0A1B800000010024045
:100F0000002809DB00F01F02012191404009800008
:100F100000F1E020C0F8001170470000F0B40E4B63
:100F20001B680C46C3F30223C3F10705042D00D947
:100F30000425191D072901D2002300E0DB1E01262C
:100F400006FA05F1491E214099409E40761E164042
:100F50003143F0BC02F02DBF0CED00E0064900F07B
:100F6000070208684FF6FF03184040EA0220034AD0
:100F700010430860704700000CED00E00000FA0527
:100F80002B492C4B0A6832214A432B4940B1B0F51A
:100F9000007F086829D020F4C06040F480602CE015
:100FA0000868C0F34120022804D051F8800F20F4D3
:100FB000807022E0D1F8800020F48070C1F88000B9
:100FC000086820F4C06040F400700860B2FBF3F0E1
:100FD000401C00E0401E4A69520501D50028F9D1A5
:100FE000486940050AD503207047C0F34120022814
:100FF00006D051F8800F40F48070086000207047E0
:10100000D1F8800040F48070C1F88000086820F4B6
:10101000C06040F400700860B2FBF3F0401C00E0D8
:10102000401E4A695205DBD50028F9D1D8E70000F7
:101030002800002040420F000070004002488168F4
:1010400041F4804181607047007000402DE9F84311
:101050000446006800269D4D00035ED5A86D00275C
:10106000C00008D4A86D40F08050A865A86D012785
:1010700000F080500090DFF85892D9F8001041F449
:101080008071C9F80010FFF7E3FE804606E000BF5C
:10109000FFF7DEFEA0EB080002282BD8D9F80000ED
:1010A000C005F5D5D5F8900010F4407014D0216C2F
:1010B000814211D0D5F89000D5F8901020F44070FE
:1010C00041F48031C5F89010D5F8901021F48031AA
:1010D000C5F89010C5F89000C00711D0FFF7B8FE12
:1010E000804641F2883907E0FFF7B2FEA0EB080125
:1010F000494501D903260BE0D5F890008007F3D5C8
:10110000D5F89000216C20F440700843C5F8900099
:101110001FB1A86D20F08050A8652078C00707D0C7
:10112000D5F88800616820F003000843C5F88800FE
:101130002078800707D5D5F88800A16820F00C003A
:101140000843C5F888002078400707D5D5F88800FF
:10115000E16820F030000843C5F8880020780007D7
:1011600007D5D5F88800216920F0C0000843C5F8EC
:1011700088002078800607D5D5F88800616920F4BA
:1011800040600843C5F888002078400607D5D5F8A8
:101190008800A16920F440500843C5F888002078F1
:1011A000000607D5D5F88800E16920F440400843DF
:1011B000C5F888002088C00507D5D5F88800216AC1
:1011C00020F440300843C5F888002088800507D502
:1011D000D5F88800616A20F440200843C5F88800EB
:1011E000208840050FD5D5F88800A16A20F440106A
:1011F0000843C5F88800A06AB0F5801F03D1E868ED
:1012000040F48010E860208800050FD5D5F88800EC
:10121000E16A20F440000843C5F88800E06AB0F5B0
:10122000800F03D1E86840F48010E8602088C00493
:101230000FD5D5F88800216B20F040700843C5F821
:101240008800206BB0F1807F03D1E86840F4801003
:10125000E86020884FF0006180040ED5D5F8880042
:10126000626B20F040601043C5F88800606B8842D4
:1012700003D1E86840F48010E860208840040ED56F
:10128000D5F88800A26B20F040601043C5F88800B4
:10129000A06B884203D1E86840F48010E8602088A1
:1012A00000040FD5D5F88800E16B20F040500843CA
:1012B000C5F88800E06BB0F1805F03D1E86840F4C6
:1012C0008030E8603046BDE8F8830000001002403E
:1012D000007000402DE9F0470E4605004FF0000772
:1012E00025D0DFF8AC81D8F8000000F00F00B04244
:1012F0000CD2D8F8001021F00F013143C8F80010CB
:10130000D8F8000000F00F00B04210D12968614CFD
:10131000C80741F2883A5AD06868DFF87C91032800
:1013200008D0022820682DD0400500282CDB0120A1
:10133000BDE8F08720688001F9D5E06800F003027D
:10134000E068C0F30310401C032A19D0534A00BFC1
:10135000B2FBF0F0E268C2F306225043E268C2F347
:101360004162521C5200B0FBF2F0484517D9A06808
:1013700010F0F00F0CD0880711D5A86840B10EE02E
:10138000474AE5E78003D0E700F0B6F8484506D9BC
:10139000A06820F0F00040F08000A0608027A068E6
:1013A000696820F003000843A060FFF751FD814603
:1013B00006E000BFFFF74CFDA0EB090151453AD80C
:1013C000A068696800F00C00B0EB810FF2D12868CA
:1013D000810714D5400703D5A06840F4E060A06001
:1013E0002878000705D5A06820F4605040F4E0603C
:1013F000A060A068A96820F0F000084304E0802FF6
:1014000003D1A06820F0F000A060D8F8001040469A
:1014100001F00F01B14216D9016821F00F013143EB
:101420000160FFF715FD074607E000BFFFF710FD5D
:10143000C11B514501D903207AE7D8F8000000F01C
:101440000F00B042F2D12878400705D5A068E968BE
:1014500020F4E0600843A0602878000706D5A06863
:10146000296920F4605040EAC100A06000F044F80F
:10147000A1680C4AC1F30311515C01F01F01C8407F
:101480000949086009480068BDE8F047FFF7FEBC5D
:10149000002002400010024000B4C4040024F40004
:1014A00000127A00EC520008280000201C000020E6
:1014B0000548064900688968054AC1F30221515C64
:1014C00001F01F01C84070472800002000100240B2
:1014D000FC5200080548064900688968054AC1F3BE
:1014E000C221515C01F01F01C84070472800002054
:1014F00000100240FC520008184910B58868C0F37B
:1015000081021748012A0BD08A684310C2F3810276
:10151000022A06D08A68C2F38102032A03D000207F
:1015200010BD184610BDCA6802F00304CA68C2F3B1
:101530000312521C032C02D0B0FBF2F001E0B3FB0B
:10154000F2F0CA68C968C2F306225043C1F3416190
:10155000491C4900B0FBF1F010BD00000010024032
:101560000024F4002DE9F84304007AD02078FA4DE5
:10157000C00747D0A868E96800F00C0001F003013B
:101580000C2802D0082817D001E0032914D0606885
:10159000B0F5803F17D0B0F5A02F286817D020F401
:1015A00080302860286820F4802028606068E0B1DE
:1015B000FFF74EFC064614E02868800322D56068D9
:1015C0000028D2D01EE0286840F48030EDE740F4D7
:1015D00080202860F7E700BFFFF73AFC801B6428F3
:1015E00070D828688003F7D50CE0FFF731FC064679
:1015F00005E000BFFFF72CFC801B6428F0D82868AA
:101600008003F7D4207880074CD5A868E96800F0FB
:101610000C0001F003010C2802D004280DD001E0D9
:1016200002290AD0E068002828682BD040F4807096
:101630002860FFF70DFC064619E02868400502D532
:10164000E068002891D06868217C20F0FE4040EAE4
:1016500001606860C1480068FFF718FC002800D1ED
:1016600020E076E1FFF7F4FB801B0228B8D8286859
:101670004005F7D56868217C20F0FE4040EA016013
:1016800068600FE020F480702860FFF7E1FB0646F9
:1016900005E000BFFFF7DCFB801B0228A0D828680C
:1016A0004005F7D42078000729D560690028D5F8CF
:1016B000940013D040F00100C5F89400FFF7C8FB78
:1016C000064606E090E000BFFFF7C2FB801B022841
:1016D00086D8D5F894008007F6D510E020F00100F8
:1016E000C5F89400FFF7B4FB064604E0FFF7B0FB33
:1016F000801B022878D8D5F894008007F6D420788B
:10170000400761D5A86D0026C00008D4A86D40F040
:101710008050A865A86D012600F080500090904888
:101720000168C90511D40168804641F480710160E7
:10173000FFF78EFB074604E0FFF78AFBC01B022879
:1017400052D8D8F80000C005F6D5A068012815D0F9
:101750000528D5F8900016D020F00100C5F89000BB
:10176000D5F8900020F00400C5F89000A06841F280
:101770008838B8B1FFF76CFB07460EE0D5F890004B
:1017800040F00100F0E740F00400C5F89000F5E7F4
:10179000FFF75EFBC11B414526D8D5F890008007B6
:1017A000F6D50CE0FFF754FB074604E0FFF750FBCB
:1017B000C11B414518D8D5F890008007F6D41EB15A
:1017C000A86D20F08050A8652078800629D5A069F2
:1017D0000028D5F8980013D040F00100C5F8980013
:1017E000FFF736FB064606E077E000BFFFF730FB69
:1017F000801B022877D8D5F898008007F6D510E02E
:1018000020F00100C5F89800FFF722FB064604E02F
:10181000FFF71EFB801B022865D8D5F898008007CB
:10182000F6D4E069F0B3A968C1F38101032961D05E
:101830000228286820F0807028600BD0E86820F02B
:101840000300E860E86847490840E860FFF700FBEC
:1018500004464BE0FFF7FCFA064604E0FFF7F8FA0F
:10186000801B02283FD828688001F7D4F4E90801DA
:101870006FF00F0202EB01110843218A520449085C
:1018800002EB4151A26841EA02210843217D4FF059
:101890007E42490802EB41610843217B40EAC16076
:1018A000E96800E062E0304A11400843E8602868D7
:1018B00040F080702860E86840F08070E860FFF7D2
:1018C000C7FA044605E000BFFFF7C2FA001B022872
:1018D00009D828688001F7D548E004E0FFF7B8FA96
:1018E000001B022802D90320BDE8F8832868800184
:1018F000F4D43BE00128F7D0E868226A00F0030145
:10190000914226D1616A00F0F0020901103991423A
:101910001FD1A26A00F4FE41B1EB022F19D194F855
:101920002C2000F07841B1EBC26F12D1218E00F46F
:10193000C00249084905A1F50011914209D194F866
:10194000341000F0C06049084906A1F100718142DD
:101950000CD00120C8E70000001002401C0000204D
:1019600000700040FFFFEEFE0C809F010020BBE7EF
:1019700010B5401EB0F1807F01D3012010BD4FF0A3
:10198000E02460610F21601702F013FA0020A061CB
:1019900007202061002010BDF0B590F83C20012AFE
:1019A0004AD0012280F83C20CA688B6822F4407239
:1019B0001A434B6822F480621A430B6822F40062D7
:1019C0001A430B6922F480521A434B6922F40052E5
:1019D0001A430B6B22F480421A430B8B22F47022C1
:1019E00042EA0342154C03680026154DA34201D07C
:1019F000AB4203D1CF6922F080523A43A34201D0D7
:101A0000AB4214D10F8D22F4700242EA07520F6AE2
:101A100022F080723A434F6A22F000723A43A342A6
:101A200001D0AB4203D1C96A22F000520A435A6482
:101A300080F83C600020F0BD0220F0BD002C014089
:101A40000034014010B5040003D094F83D0010B1FB
:101A500007E0012010BD002084F83C00204600F083
:101A600023F8022084F83D00211D206801F072FA5D
:101A7000012084F8480084F83E0084F83F0084F890
:101A8000400084F8410084F8420084F8430084F860
:101A9000440084F8450084F8460084F8470084F840
:101AA0003D00002010BD000008B50C4A01680C483C
:101AB000914207D1016E41F400310166006E00F4DD
:101AC000003009E0074A914207D1016E41F48021BC
:101AD0000166006E00F48020009008BD00440140C3
:101AE000001002400048014070B586B00446142141
:101AF0006846FEF7C5FB154E2568002214490224EE
:101B000001234FF09040B54209D1CD6C45F001055D
:101B1000CD64C96C01F00101059140210BE00D4E2F
:101B2000B54210D1CD6C45F00105CD64C96C01F012
:101B30000101059180210091CDE901426946CDE97D
:101B40000323FFF757F806B070BD000000440140C2
:101B5000001002400048014070B5044690F83C0077
:101B6000002501280BD0012084F83C000C2A1ED04F
:101B700007DC82B1042A12D0082A06D113E0022021
:101B800070BD102A17D0142A19D00125002084F81E
:101B90003C00284670BD206801F042FAF6E7206854
:101BA00001F08CFAF2E7206801F0D0FAEEE7206845
:101BB00001F014FBEAE7206801F058FBE6E7206833
:101BC00001F08CFBE2E710B5040003D094F83D006F
:101BD00010B107E0012010BD002084F83C00204631
:101BE00000F022F8022084F83D00211D206801F059
:101BF000B1F9012084F8480084F83E0084F83F00E1
:101C000084F8400084F8410084F8420084F84300DE
:101C100084F8440084F8450084F8460084F84700BE
:101C200084F83D00002010BD7047000030B5044628
:101C3000022269B1042912D0082917D00C291CD01E
:101C4000102921D094F84300012824D0012030BD70
:101C500094F83E000128F9D184F83E201DE094F864
:101C60003F000128F2D184F83F2016E094F84000AC
:101C70000128EBD184F840200FE094F841000128BE
:101C8000E4D184F8412008E094F842000128DDD135
:101C900084F8422001E084F843200122206801F00A
:101CA000B1F9194B20681949194A984209D088425C
:101CB00007D0904205D0174DA84202D0164DA84239
:101CC00003D1456C45F400454564206898420CD02A
:101CD000B0F1804F09D0114B984206D0104B98427A
:101CE00003D0884201D0904207D181680D4A11404B
:101CF000062906D0B1F5803F03D0016841F001010B
:101D00000160002030BD0000002C01400034014083
:101D100000400140004401400048014000040040F0
:101D2000000800400700010090F88010012918D039
:101D3000012180F880102421C0F8841050F8641B21
:101D40000A680B6823F001030B6022F000510022A7
:101D5000026050F8643C196020210162027710464D
:101D60007047022070477047704770B5044690F87E
:101D7000800001281DD0012084F880002420C4F8B0
:101D8000840020680568026822F001020260206871
:101D9000826822F060620A438260204601F0D6FA2F
:101DA000206805602020C4F88400002084F88000AA
:101DB00070BD022070BD70B5044690F88000012807
:101DC0001DD0012084F880002420C4F884002068FD
:101DD0000568026822F0010202602068826822F031
:101DE00060420A438260204601F0B0FA2068056034
:101DF0002020C4F88400002084F8800070BD0220F8
:101E000070BD7047704770472DE9F0410368044684
:101E1000D86919689A6840F60F0528424FF0000506
:101E200009D186067ED501F0200602F080573E4398
:101E300078D0216F27E1A94EA94F16400F403743B4
:101E400070D0C70709D0CF0507D501271F62D4F886
:101E50008C3043F00103C4F88C3083070AD5D307D4
:101E600008D0276802233B62D4F88C3043F0040387
:101E7000C4F88C3043070AD5D30708D02768042359
:101E80003B62D4F88C3043F00203C4F88C30030773
:101E90000CD501F02003334308D0266808233362B1
:101EA000D4F88C3043F00803C4F88C3003050BD50C
:101EB0004B0109D526684FF400633362D4F88C30A7
:101EC00043F02003C4F88C30D4F88C30002B3AD087
:101ED000800609D501F0200002F08051084303D0AC
:101EE000216F09B120468847D4F88C0021688968A1
:101EF000490602D410F0280F27D0204601F0E6FA58
:101F00002068806840061BD52068083050E8001F14
:101F100021F0400140E80012002AF5D1E06F78B1CD
:101F2000704900E017E08163E06FFEF714FE0028BF
:101F300009D0E06F816B00E02046BDE8F041084722
:101F40002046FFF760FFBDE8F0812046FFF75BFF0A
:101F5000C4F88C50F7E7E76E2026012F7ED1C70624
:101F60007CD5CF067AD5102018622068806840069C
:101F700042D5E16F086840680004000CE3D0B4F873
:101F80005C208242DFD9A4F85E0008680068800601
:101F90002BD4206850E8001F21F4807140E8001223
:101FA000002AF6D12068083050E8001F21F0010116
:101FB00040E80012002AF5D12068083050E8001FE0
:101FC00021F0400140E80012002AF5D1C4F88860F1
:101FD000E566216851E8000F20F0100041E800029A
:101FE000002AF6D1E06FFEF781FDB4F85C00B4F88A
:101FF0005E10401A81B22CE0B4F85C00B4F85E10B8
:10200000401A81B2B4F85E0000289CD000299AD012
:10201000226852E8000F20F4907042E80003002B81
:10202000F6D12E4BDB432068083050E8002F1A40D1
:1020300040E80027002FF6D1C4F88860E5662567E0
:10204000226852E8000F20F0100042E80003002B45
:10205000F6D12046FFF787FE75E7FFE7C70209D5EF
:10206000570207D54FF4801018622046BDE8F041B2
:10207000FFF7C8BE03060AD501F0800302F4000290
:10208000134304D0616F00297FF456AF5BE742062B
:1020900011D54A060FD52046016851E8002F22F0DD
:1020A000400241E80023002BF6D1C0F88460456768
:1020B00000F00EF947E7020206D54A0004D5204693
:1020C000BDE8F041FFF79DBEC001C5D50029C3DAC8
:1020D0002046BDE8F041FFF747BE000001000010B8
:1020E00020010004B934000810B5040003D0D4F86E
:1020F000840010B107E0012010BD002084F88000AA
:10210000204600F027F82420C4F8840020680168E5
:1021100021F001010160204601F01AFC0128EBD0FA
:10212000A06A10B1204601F033F92068416821F41B
:10213000904141602068816821F02A018160206817
:10214000016841F0010101602046BDE8104001F046
:1021500083B9000010B598B00446142111A8FEF709
:102160008FF844216846FEF78BF81B4920688842A7
:1021700030D101200024CDE900046846FEF766FF57
:1021800008B1FEF7C9F81548016E41F480410166B7
:10219000016E01F480411691C16C41F00101C164EE
:1021A000C06C11A900F0010016904FF4C0601190AE
:1021B0000220CDE912040720CDE914404FF09040F1
:1021C000FEF718FD002211462520FEF7A7FE252068
:1021D000FEF796FE18B010BD003801400010024016
:1021E00030B4D0F88830202B20D1E1B1DAB190F8AA
:1021F0008030012B1AD0012380F880300023C36681
:102200000B4C0368A3420BD05B681B0208D5046823
:1022100054E8003F43F0806344E80035002DF6D1D8
:1022200030BC01F0CFBC012030BC70470220FBE77E
:102230000080004070B5234C234D207801281ED12A
:10224000607803281BD1A188287801EB81016FF009
:102250002F0202EB4101084482B2A280A078401C08
:10226000C0B2A07003280AD10020A07020701748C7
:1022700004234FF49F710280A82000F0B3F828785F
:1022800001212D2806D0312806D0322808D0332845
:102290000BD00FE021700DE0607858B9617009E053
:1022A0006078012806D1022003E06078022801D17D
:1022B00003206070BDE870400349012201F18000F5
:1022C000FFF78EBF080000209C01002014000020B2
:1022D0007047FEE700B585B014216846FDF7D0FFD2
:1022E0004FF6FF70009000200321CDE9020101901C
:1022F00069460248FEF77EFC05B000BD00080048B4
:1023000000B585B014216846FDF7BAFF4FF6FF709F
:102310000090012001900320039000200290694664
:102320000248FEF767FC05B000BD00000008004849
:1023300070B5002406462146204600F03BF900F027
:1023400079F94FF49635304600F048F9641CAC42F8
:10235000F9D370BD30B587B014216846FDF790FF02
:102360001E48C16C41F00401C164C16C01F004015C
:102370000591C16C41F00101C164C16C01F0010122
:102380000591C16C41F00201C164C06C012500F0EF
:10239000020005904FF44870CDE900050024039435
:1023A000694602940E48FEF725FC2802039400902B
:1023B000CDE901544FF0904469462046FEF71AFCDF
:1023C000FFF79EFFA06940F48070A06104481830B8
:1023D000016841F40871016007B030BD001002408F
:1023E000000400482DE9F043002688B08146002A09
:1023F00001DA524201260A24581E40B26D46A44614
:1024000011E000BFB2FBF4F7B4FBFCF804FB1727A4
:10241000B7FBF8F730372F54A24206D304EB8404FD
:102420006400401E40B20028ECDA1EB12D22401E8E
:1024300040B22A542022041EA0F1010040B201DD66
:102440002A54F8E70020E8542A46484600F010F8DD
:1024500008B0BDE8F0830000203AD2B2034B02EB93
:10246000420203EB021200F017B80000DC40000843
:10247000F0B515460E460746002407E031463846BB
:10248000FFF7EAFF103E641CB6B26D1C2A78002AE2
:1024900001D0142CF2D3F0BD2DE9F04791468A46C5
:1024A0000026044600F086F8DFF84080012700BFD0
:1024B00000F0C0F85FF0000539F8160007FA05F1E2
:1024C0000842404601D1408800E0008800F086F8CC
:1024D0006D1C102DF0D3641CE4B25146204600F070
:1024E00069F8761C182EE3D3BDE8F08716000020AB
:1024F00010B5FFF72FFF002000F014F8084CA08063
:10250000A088A0F50241303906D000F0E3FB00209E
:1025100000F008F8A08010BD00F053FBF7E70000C2
:102520001600002070B51D490A6842F400720A6066
:102530000A6842F480720A60184C103C226842F02B
:1025400020022260164A1060086840F020000860EF
:1025500000BF00BF00BF206840F02000206020685E
:1025600040F480702060FFF7B5FE4FF09041886A1C
:1025700040F48070886200BF00BF00BF0848001FA1
:10258000006885B2886940F480708861FFF7B8FE02
:10259000206840F400702060284670BD2804004880
:1025A0001408004801B5BDF800000149488008BD85
:1025B0001600002010B50C460146202000F068F8F7
:1025C0002146BDE81040212000F062B801B5BDF8F9
:1025D00000000149088008BD16000020134A116858
:1025E00041F400711160114910390B6843F4807394
:1025F0000B600B6843F020030B600D4B18601068F4
:1026000040F02000106000BF00BF00BF086840F02D
:1026100020000860086840F48070086000BF00BFB8
:1026200000BF086840F40070086070472804004844
:10263000140800481449086840F4007008600868ED
:1026400040F48070086010481038026842F02002A0
:1026500002600E4B22221A600A6842F020020A60D1
:1026600000BF00BF00BF016841F0200101600168A8
:1026700041F48071016000BF00BF00BF016841F4F8
:1026800000710160704700002804004814080048E9
:10269000184B10B51A6842F400721A601A6842F4B6
:1026A00080721A60134A103A146844F020041460CF
:1026B000114C2060186840F02000186000BF00BF77
:1026C00000BF106840F020001060106840F4807077
:1026D00010602160186840F02000186000BF00BF43
:1026E00000BF106840F020001060106840F4807057
:1026F000106010BD280400481408004810B50124DB
:10270000022001F005FC6420FEF762FA022001F0CD
:10271000DFFB6420FEF75CFA641C192CF0DD10BDB1
:1027200000EB8100006E00F0F84070478068C0F355
:10273000C00070478068C0F3800070478068C0F3B5
:1027400080007047042303EAD15310B5184443694D
:10275000C1F3045107248C40A3438A4013434361CF
:1027600010BD00EB8100016E21F0004111430166B4
:102770007047000030B58BB00024089409942021E4
:1027800068460A94FDF77CFD1C484FF0A0410425E3
:1027900001604FF44031C0E90114C4600461C0E934
:1027A0000545047744770121016280F82440C46222
:1027B000046380F83840C46380F84040FEF726F890
:1027C00008B1FDF7A9FD08A90C480894FDF7A6FD7E
:1027D00008B1FDF7A1FD0A4800900620CDE90104EB
:1027E0007F200594CDE9030569460448FDF702FE04
:1027F000002801D0FDF790FD0BB030BD2C0000206B
:102800000008302E30B589B020216846FDF738FD2C
:1028100019481849002401604FF44031C0E90114FF
:10282000C46004250461C0E90545047744770121AB
:10283000016280F82440C462046380F83840C463B5
:1028400080F84040FDF7E2FF08B1FDF765FD0B4859
:1028500000900620CDE901047F200594CDE9030511
:1028600069460548FDF7C6FD002801D0FDF754FD77
:1028700009B030BD00010050980000200080F03EFB
:10288000F0B587B014216846FDF7FAFC2D48C16CFD
:1028900041F00401C164C16C01F004010591C16CF7
:1028A00041F02001C164C16C01F020010591C16CAF
:1028B00041F00801C164C16C01F008010591C16CCF
:1028C00041F00101C164C16C01F001010591C16CCD
:1028D00041F00201C164C06C1B4E00F002004FF4D5
:1028E0007F440590002221463046FEF7ACFA174F90
:1028F000002204213846FEF7A6FA0125CDE900455D
:1029000000240294694630460394FEF773F90420CC
:102910000090CDE90154694638460394FEF76AF900
:10292000CDE9005469464FF090400294FEF762F9F9
:102930000720CDE90004694605480294FEF75AF9DC
:1029400007B0F0BD0010024000080048000C00482D
:102950000004004810B594B01C210DA8FDF790FCB0
:1029600034216846FDF78CFC1F481E490024016095
:102970005021C0E901144FF6FF71C0E9031444610E
:102980008461FFF75FF808B1FDF7C6FC1648FFF752
:102990001AF908B1FDF7C0FC0D940E940F94109431
:1029A0001194129400220DA90F481394FFF7D4F844
:1029B00008B1FDF7B1FC00944FF40050CDE904409C
:1029C0000194029403940694694607480C94FEF718
:1029D000E3FF08B1FDF7A0FC0348FFF785F814B04A
:1029E00010BD0000004401400401002010B594B067
:1029F0001C210DA8FDF744FC34216846FDF740FC7E
:102A00001F481E4900240160AA21C0E901144FF4A7
:102A10007A71C0E9031444618461FFF713F808B1C7
:102A2000FDF77AFC1648FFF7CEF808B1FDF774FC05
:102A30000D940E940F9410941194129400220DA9E9
:102A40000F481394FFF788F808B1FDF765FC009470
:102A50004FF40050CDE9044001940294039406948D
:102A6000694607480C94FEF797FF08B1FDF754FC40
:102A70000348FFF739F814B010BD000000480140CA
:102A8000500100201A4810B5184901604FF4165142
:102A90004160002181600C22C160C0E904128161A3
:102AA000C161016241628162FFF71EFB08B1FDF75F
:102AB00033FC00210E48FFF77EF908B1FDF72CFC2E
:102AC00000210B48FFF751F908B1FDF725FC084834
:102AD000FFF72AF908B1FDF71FFC05490122BDE8FF
:102AE000104080390248FFF77BBB000000380140EE
:102AF0001C020020FEE7FEE710B504460021034853
:102B0000FFF794F801480068446310BD50010020AD
:102B10002DE9F041284C642194F9000010FB01F0EC
:102B200094F901104FF49F7501EB810100EB410016
:102B300094F902100423084486B232462946C02084
:102B4000FFF750FC0423E2882946D820FFF74AFC0F
:102B5000E0884FF0FF3586421ED101F091FA012046
:102B600001F0D6F9154F4FF4FA763220FE60FFF7E8
:102B7000C3FF41F28830FEF72BF8012001F0A8F9DD
:102B80007000F8603046FFF7B7FF01F0FDF92570DF
:102B90006570A570BDE8F08101F0F6F925706570EB
:102BA000A570E078401C40B2E0700328F2DBBDE87D
:102BB000F041FFF7A3BD00000E00002050010020EF
:102BC000704730B501210020FFF762FD4FF47A70A5
:102BD000FDF794FB00210120FFF75AFD41F29071AF
:102BE0001020FFF755FD4FF41C516020FFF750FDFA
:102BF00001216120FFF74CFD02214620FFF748FD2F
:102C000048F210011320FFF743FD48F2FE011220A5
:102C1000FFF73EFD4FF4A0610220FFF739FD41F2BE
:102C200030010320FFF734FD40F203342146302009
:102C3000FFF72EFD21463120FFF72AFD21463220E5
:102C4000FFF726FDE51E29463320FFF721FD03216E
:102C50003420FFF71DFD21463520FFF719FD142113
:102C60003620FFF715FD21463720FFF711FD2146DD
:102C70003820FFF70DFD21463920FFF709FD2946D1
:102C80003A20FFF705FD03213B20FFF701FD214618
:102C90003C20FFF7FDFC4FF4A0513D20FFF7F8FC6E
:102CA0004FF400719220FFF7F3FC21469320FFF7C9
:102CB000EFFC40F60D019020FFF7EAFC41F218010D
:102CC0000320FFF7E5FCBDE8304040F27311072018
:102CD000FFF7DEBC10B543F20801E320FFF7D8FC94
:102CE0001221E720FFF7D4FC41F23121EF20FFF75A
:102CF000CFFC00210120FFF7CBFC4FF4E061022064
:102D0000FFF7C6FC41F230010320FFF7C1FC0021B0
:102D10000420FFF7BDFC40F207210820FFF7B8FCB4
:102D200000210920FFF7B4FC00210A20FFF7B0FCC6
:102D300000210C20FFF7ACFC00210D20FFF7A8FCC0
:102D400000210F20FFF7A4FC00211020FFF7A0FCBA
:102D500007211120FFF79CFC00211220FFF798FCAF
:102D600000211320FFF794FCC820FDF731FF41F24A
:102D700090611020FFF78CFC40F227211120FFF713
:102D800087FC3220FDF724FF1D211220FFF780FC75
:102D90003220FDF71DFF4FF400611320FFF778FC90
:102DA00014212920FFF774FC0B212B20FFF770FC66
:102DB0003220FDF70DFF00212020FFF769FC0021E4
:102DC0002120FFF765FC07213020FFF761FC40F26E
:102DD00007713120FFF75CFC06213220FFF758FC19
:102DE00040F204713520FFF753FC41F604713620A0
:102DF000FFF74EFC04213720FFF74AFC0021382062
:102E0000FFF746FC40F206713920FFF741FC40F223
:102E100001713C20FFF73CFC0F213D20FFF738FCFF
:102E200000215020FFF734FCEF215120FFF730FC48
:102E300000215220FFF72CFC40F23F115320FFF7F6
:102E400027FC4FF41C516020FFF722FC0121612078
:102E5000FFF71EFC00216A20FFF71AFC00218020EA
:102E6000FFF716FC00218120FFF712FC00218220D1
:102E7000FFF70EFC00218320FFF70AFC00218420CD
:102E8000FFF706FC00218520FFF702FC10219020AF
:102E9000FFF7FEFB00219220FFF7FAFB03219320AE
:102EA000FFF7F6FB4FF488719520FFF7F1FB002147
:102EB0009720FFF7EDFB00219820FFF7E9FB41F297
:102EC00018010320FFF7E4FBBDE8104040F2731146
:102ED0000720FFF7DDBB7047FDF7C0BF00B593B01B
:102EE00038216846FDF7CCF914210EA8FDF7C8F982
:102EF0000020FEF745F80220C10103914021049112
:102F00000421CDE9080100905521CDE90A10079070
:102F10000C900D906846FEF725FB08B172B6FEE7EF
:102F20000F200E9003200F9000201090119012900F
:102F300004210EA8FEF7CEF9002801D072B6FEE7F4
:102F400013B000BD0248016841F470010160704790
:102F500088ED00E02DE9F0430268234B234D244E19
:102F6000244C4FF08049984207D0484505D0A842EC
:102F700003D0B04201D0A04203D122F070074A68CA
:102F80003A431D4FDFF874C0DFF8748098420DD0CB
:102F900048450BD0A84209D0B04207D0A04205D086
:102FA000B84203D0604501D0404503D122F44075BA
:102FB000CA682A434D6922F080022A4302608A6867
:102FC000C2620A688262984207D0A04205D0B84225
:102FD00003D0604501D0404501D109690163012159
:102FE0004161BDE8F0830000002C01400004004076
:102FF000000800400034014000400140004401400E
:103000000048014010B501F01F030121046A9940F6
:103010008C430462016A9A401143016210BD0000B2
:103020002DE9F043026A22F001020262056A436858
:1030300082691C4C25F0020522400C6822F0030234
:1030400014438A68194E2A43174D194FDFF864C09C
:10305000DFF86490A84207D0B04205D0B84203D050
:10306000604501D0484506D122F00808CA6842EA06
:10307000080222F00402A84207D0B04205D0B842AC
:1030800003D0604501D0484505D14D6923F4407314
:103090001D438B692B43436084614968416302622D
:1030A000BDE8F0838FFFFEFF002C0140003401409B
:1030B000004001400044014000480140F0B5026A70
:1030C00022F010020262056A42688369194C1B4EA5
:1030D00023400C6823F4407343EA042425F02003C2
:1030E0008D6843EA0513144DA84201D0B04206D1C1
:1030F000CF6823F0800343EA071323F04003A8427C
:103100000AD0B04208D00E4DA84205D00D4DA842BD
:1031100002D00D4DA84207D14D6922F4406242EA27
:1031200085028D6942EA8502426084614968816353
:103130000362F0BDFF8FFFFE002C01400034014010
:10314000004001400044014000480140F0B5026ADF
:1031500022F480720262056A4368C269194C1B4EF0
:1031600022400C6822F00302144325F400728D689B
:1031700042EA0522144DA84201D0B04206D1CF68E0
:1031800022F4006242EA072222F48062A8420AD0B6
:10319000B04208D00E4DA84205D00E4DA84202D034
:1031A0000D4DA84207D14D6923F4405343EA05135E
:1031B0008D6943EA05134360C4614968C1630262D3
:1031C000F0BD00008FFFFEFF002C014000340140E5
:1031D000004001400044014000480140F0B5026A4F
:1031E00022F480520262056A4268C369194C1B4E80
:1031F00023400C6823F4407343EA042425F400536D
:103200008D6843EA0533144DA84201D0B04206D17F
:10321000CF6823F4004343EA073323F48043A842F2
:103220000AD0B04208D00E4DA84205D00D4DA8429C
:1032300002D00D4DA84207D14D6922F4404242EA26
:1032400085128D6942EA85124260C4614968016451
:103250000362F0BDFF8FFFFE002C014000340140EF
:1032600000400140004401400048014030B5026A7E
:1032700022F480320262046A4268036D114D2B40D1
:103280000D681D4324F400330C8943EA04430E4CBB
:10329000A0420BD00D4CA04208D00D4CA04205D04E
:1032A0000C4CA04202D00C4CA04204D14C6922F438
:1032B000803242EA04224260056549688164036203
:1032C00030BD00008FFFFEFF002C014000340140A4
:1032D00000400140004401400048014030B5026A0E
:1032E00022F480120262046A4268036D114D24F4D4
:1032F00000142B400D6843EA05230D8944EA055468
:103300000D4DA8420BD00D4DA84208D00C4DA8423F
:1033100005D00C4DA84202D00B4DA84204D14D69F6
:1033200022F4802242EA8522426003654968C16432
:10333000046230BDFF8FFFFE002C014000340140CD
:1033400000400140004401400048014030B5416E5A
:10335000B9B1026891689268C1F342610B4B520F98
:103360009C5CE50003F10804A25CB5FBF2F2A0F856
:103370006A205A5C615CD200B2FBF1F1A0F86810DF
:1033800030BD0121A0F86A10F8E70000DC52000807
:1033900090F82810C90706D001684A68C36A22F469
:1033A00000321A434A6090F82810890706D5016850
:1033B0004A68036B22F480321A434A6090F828105E
:1033C000490706D501684A68436B22F480221A43F4
:1033D0004A6090F82810090706D501684A68836B8F
:1033E00022F400421A434A6090F82810C90606D514
:1033F00001688A68C36B22F480521A438A6090F88D
:103400002810890606D501688A68036C22F40052E8
:103410001A438A6090F82810490611D501684A6855
:10342000436C22F480121A434A60416CB1F5801F4C
:1034300006D101684A68836C22F4C0021A434A60CC
:1034400090F82810090606D501684A68C06C22F475
:10345000002202434A607047F8B500260446C0F8CF
:103460008C60FDF7F5FC0546206800686FF07E472C
:10347000000708D52B4600224FF400112046009784
:1034800000F02CFC60B92068006840070AD52B4684
:1034900000224FF480012046009700F01FFC08B185
:1034A0000320F8BD2020C4F88400C4F8880044F844
:1034B0006C6F00202675F8BD10B5806A0021A0F859
:1034C0005E10A0F85610FEF79EFC10BD10B5026805
:1034D00052E8001F21F4907142E80013002BF6D14E
:1034E0000E4B0268083252E8001F194042E80014EF
:1034F000002CF6D1C16E012908D1016851E8002FD6
:1035000022F0100241E80023002BF6D12021C0F860
:1035100088100021C166016710BD0000FEFFFFEFAB
:1035200010B5B0F86020D0F888300168222B04D0A4
:10353000886940F00800886110BD496A836D1140B8
:103540001980816D891C8165B0F85E10491EA0F854
:103550005E10B0F85E100029EED1026852E8001F3C
:1035600021F4907142E80013002BF6D10168083174
:1035700051E8002F22F0010241E80023002BF5D191
:103580002021C0F8881000210167C26E012A02D0F4
:10359000FEF750FE10BDC166026852E8001F21F020
:1035A000100142E80013002BF6D10168CA69D2432A
:1035B000D20601D410220A62B0F85C10FEF7D3FBE9
:1035C00010BD00002DE9F0470446B0F860600068C7
:1035D000C569D0F800A0D0F80880D4F88810222956
:1035E00005D0816941F008018161BDE8F087B4F838
:1035F00068704FF0000963E02068406AA16D3040B8
:103600000880A06D801CA065B4F85E00401EA4F880
:103610005E002068C569690730D0E9070AD05FEA13
:10362000CA5107D501210162D4F88C0040F0010095
:10363000C4F88C00A8070BD55FEAC87008D02168D1
:1036400002200862D4F88C0040F00400C4F88C001A
:1036500068070BD55FEAC87008D0216804200862AB
:10366000D4F88C0040F00200C4F88C00D4F88C0030
:1036700020B12046FEF7C7FBC4F88C90B4F85E007A
:10368000F0B9216851E8000F20F4807041E8000291
:10369000002AF6D1264A2068083050E8001F114061
:1036A00040E80013002BF6D12020C4F88800C4F8AD
:1036B0007090E16E4846012923D02046FEF7BAFDFE
:1036C0000FB1A80698D4B4F85E0000288DD0B4F8E5
:1036D0006810814289D92068083050E8001F21F025
:1036E000805140E80012002AF5D112482067206876
:1036F00050E8001F41F0200140E80012002AF6D1F6
:1037000073E7E066216851E8000F20F0100041E8FF
:103710000002002AF6D12068C169C943C90601D454
:1037200010210162B4F85C102046FEF71CFBC7E7CD
:10373000FEFFFFEF2135000810B5B0F86020D0F88B
:1037400088300168222B04D0886940F00800886125
:1037500010BD496A1140826D1170816D491C8165EF
:10376000B0F85E10491EA0F85E10B0F85E10002997
:10377000EED1026852E8001F21F4907142E8001374
:10378000002BF6D10168083151E8002F22F0010228
:1037900041E80023002BF5D12021C0F8881000213A
:1037A0000167C26E012A02D0FEF744FD10BDC1665A
:1037B000026852E8001F21F0100142E80013002BBC
:1037C000F6D10168CA69D243D20601D410220A6236
:1037D000B0F85C10FEF7C7FA10BD00002DE9F04705
:1037E0000446B0F860600068C569D0F800A0D0F861
:1037F0000880D4F88810222905D0816941F0080199
:103800008161BDE8F087B4F868704FF0000963E0AB
:103810002068406AA16D30400870A06D401CA06512
:10382000B4F85E00401EA4F85E002068C569690710
:1038300030D0E9070AD05FEACA5107D501210162F9
:10384000D4F88C0040F00100C4F88C00A8070BD518
:103850005FEAC87008D0216802200862D4F88C00A2
:1038600040F00400C4F88C0068070BD55FEAC8700C
:1038700008D0216804200862D4F88C0040F00200CF
:10388000C4F88C00D4F88C0020B12046FEF7BBFAB7
:10389000C4F88C90B4F85E00F0B9216851E8000FCC
:1038A00020F4807041E80002002AF6D1264A206800
:1038B000083050E8001F114040E80013002BF6D1FB
:1038C0002020C4F88800C4F87090E16E48460129B1
:1038D00023D02046FEF7AEFC0FB1A80698D4B4F86A
:1038E0005E0000288DD0B4F86810814289D9206824
:1038F000083050E8001F21F0805140E80012002AF3
:10390000F5D112482067216851E8000F40F02000EF
:1039100041E80002002AF6D173E7E066216851E829
:10392000000F20F0100041E80002002AF6D12068C4
:10393000C169C943C90601D410210162B4F85C1001
:103940002046FEF710FAC7E7FEFFFFEF3937000801
:103950002DE9F0410446016880682269E36910435B
:10396000626900251A431043DFF82CC20A688B4BAA
:103970001A4002430A6020684168E26821F440511D
:10398000114341602168A069614501D0226A10435A
:103990008A68834B1A4002438A602068C16A626A5F
:1039A00021F00F011143C1627E4923687E488B429A
:1039B0000DD1D0F8880010F0030006D0012855D0B2
:1039C000022842D003283FD152E001203DE0774950
:1039D0008B420BD1D0F8880010F00C0035D00428B1
:1039E00033D0082840D00C282ED141E070498B42BA
:1039F0000BD1D0F8880010F0300026D0102835D038
:103A0000202831D030281FD132E06A498B420BD1B7
:103A1000D0F8880010F0C00017D0402826D08028A9
:103A200022D0C02810D123E063450DD1D0F8880002
:103A300010F4406009D0B0F5806F17D0B0F5006F7A
:103A400012D0B0F5406F13D010205B495B4F0026B9
:103A50004FF4004263453BD160B1022813D00428E3
:103A60000BD0082872D10DE00220EEE70420ECE72D
:103A70000820EAE7FDF71CFD01E0FDF73DFD010030
:103A800001D17CE01146606A37F810206768B1FB0D
:103A9000F2F007EB4703834270D8B0EB073F6DD8D5
:103AA000002308461946FCF7B3FB090241EA1061FE
:103AB00002027808101871413A460023FCF7A8FB6F
:103AC0003F4AA0F54071914258D82168C86056E03D
:103AD000E3694FF6EF7893422CD109284ED2DFE804
:103AE00000F00508114D0D4D4D4D1000FDF7E0FCA7
:103AF00001E0FDF7EFFC010004D140E0FDF7FCFC24
:103B0000F9E71146606A37F81000B1FBF0F04100A8
:103B1000606801EB5001B1FBF0F0A0F110014145EC
:103B20002CD84FF6F0710140C0F3420001432068E9
:103B3000C16024E0092821D2DFE800F00509122045
:103B40000E2020201100FDF7B3FC02E016E0FDF787
:103B5000C1FC010004D112E0FDF7CEFCF9E71146EB
:103B6000606A37F81000B1FBF0F1606801EB5001BA
:103B7000B1FBF0F0A0F1100141450AD90125012067
:103B8000A4F86A0024F8680F2846A660E660BDE83D
:103B9000F08180B299E7000000800040F369FFCF18
:103BA000FFF4FF11003801400010024000440040C3
:103BB00000480040004C00400024F400C4520008BB
:103BC000FFFC0F0070B58165A0F85C20A0F85E20B6
:103BD0000021016783684FF48055FF24AB4204D174
:103BE0000369FBB940F2FF1322E07F26C3B1B3F1B2
:103BF000805F1AD0A0F86010C0F88C102223C0F8A3
:103C000088300368083353E8004F44F0010443E868
:103C10000046002EF5D1436EB3F1005F0ED032E0C6
:103C2000036943B9A0F86040E6E703691BB13F238D
:103C3000A0F86030E0E7A0F86060DDE7B0F8683039
:103C4000934220D88268AA4201D10269CAB11F4AB0
:103C5000026780F88010016941B1026852E8001FD4
:103C600041F4807142E80013002BF6D1016808315D
:103C700051E8002F42F0805241E80023002BF5D19B
:103C800021E0134AE4E78268AA4201D102697AB1CD
:103C9000104A026780F88010016959B1026852E841
:103CA000001F41F4907142E80013002BF6D10AE0A6
:103CB000094AEEE7026852E8001F41F0200142E89D
:103CC0000013002BF6D1002070BD0000DD37000886
:103CD000C535000839370008213500082DE9F047BF
:103CE0009A4617460E4604464FF000094FF020084A
:103CF000089D4AE0681C48D0FDF7AAF8A0EB0A002E
:103D0000A8422AD84DB32068016849073DD5C0694B
:103D1000C043000539D421684FF400600862206870
:103D200050E8001F21F4D07140E80012002AF6D1BB
:103D30002068083050E8001F21F0010140E800121F
:103D4000002AF5D144F8848FC4F80480C4F80880B0
:103D500004F8049C0320BDE8F087216851E8000FB7
:103D600020F4D07041E80002002AF6D12068083023
:103D700050E8001F21F0010140E80012002AF5D1AF
:103D800044F8848FC4F80480E2E72068C06936EA0A
:103D9000000004D00020B842ACD00020DBE70120B6
:103DA000F9E700000148FEF72FB800001C020020D0
:103DB000FEE70907090E002804DB00F1E02080F887
:103DC0000014704700F00F0000F1E02080F8141D8F
:103DD000704702E008C8121F08C1002AFAD17047D4
:103DE0007047002001E001C1121F002AFBD170477B
:103DF00070B5274C01212046FDF720F84FF0904583
:103E000070B102212046FDF719F848B1042120467F
:103E1000FDF714F820B101212846FDF70FF898B9F5
:103E200001212046FDF70AF880B102212046FDF766
:103E300005F898B104212046FDF700F8B0B1012142
:103E40002846FCF7FBFFD0B1002070BD0125012101
:103E50002046FCF7F3FF0028F9D00EE002250221EE
:103E60002046FCF7EBFF0028F9D006E003250421EB
:103E70002046FCF7E3FF0028F9D0284670BD042453
:103E800001212846FCF7DAFF0028F9D0204670BD52
:103E9000000400480B4910B54FF47F4008800A48E1
:103EA0000168C9B241F47F410160084C012204213C
:103EB0002046FCF7C8FF20460022BDE81040042140
:103EC000FCF7C1BF0000002014080048000C0048A7
:103ED0000C4910B5802282400888024390B20880C5
:103EE00009490A68D2B202430A60084C012204213F
:103EF0002046FCF7A8FF20460022BDE81040042120
:103F0000FCF7A1BF0000002014080048000C004886
:103F10000C4910B5802282400888904308800A49E5
:103F20000A68D2B202430A60084C012204212046EA
:103F3000FCF789FF20460022BDE810400421FCF771
:103F400082BF00000000002014080048000C004858
:103F5000FCF78CFFFEF7C2FFFEF792FCFEF7FAFCBF
:103F6000FEF744FDFEF706FCFEF74CFCFEF78AFD6B
:103F7000FEF7BEFAFFF78EFF4FF4FA70FEF7BCFDB6
:103F800000F03CF8FEE7000010B50020FEF7D0F985
:103F90000020FEF707FB4FF6FF70FEF717FB12A29B
:103FA000CE213020FEF764FA10A2FE216020FEF739
:103FB0005FFA0FA2FE217820FEF75AFA0DA2FE2129
:103FC0009020FEF755FA0CA2CE216020FEF750FAA1
:103FD00009A2CE217820FEF74BFACE21BDE8104091
:103FE00005A29020FEF744BA5053440042313A00F3
:103FF00042323A0042333A0040000000FFF7C4FF6B
:1040000000251E4CFFF7F4FE207101280DD1207809
:10401000401C40B22070092800DD2570012394F96E
:104020000020CE216020FEF7DDF9207902280DD195
:104030006078401C40B26070092800DD6570012383
:1040400094F90120CE217820FEF7CCF920790328BD
:104050000DD1A078401C40B2A070092800DDA570E9
:10406000012394F90220CE219020FEF7BBF920799C
:104070000428C7D1FEF74CFDC4E700000E00002065
:1040800010B50020FEF754F90020FEF78BFA4FF62A
:10409000FF70FEF79BFA0BA2CE213020FEF7E8F965
:1040A00009A2FE216020FEF7E3F909A29E2160200B
:1040B000FEF7DEF9FE21BDE8104006A27820FEF7EB
:1040C000D7B9000053544100463A32303030000036
:1040D000487A0000443A313025000000000000001A
:1040E00000000000000000000000000000000000D0
:1040F00000000000000000000000000000000000C0
:10410000000000000000000000000000000080012E
:104110008001800180018001800180018001800197
:104120008001800180018001000000008001800189
:10413000000000000000000000000000000000007F
:10414000CC00CC00CC00CC00CC00CC0000000000A7
:10415000000000000000000000000000000000005F
:10416000000000000000000000000000000000004F
:104170000000000000000000600C600C600C3006C5
:104180003006FE1FFE1F300638071803FE1FFE1FF5
:10419000180318038C018C018C01000000008000C2
:1041A000E003F80F9C0E8C1C8C188C009800F80112
:1041B000E007800E801C8C188C189C18B80CF00F2F
:1041C000E00380008000000000000000000000000C
:1041D00000000E181B0C110C11061106110311031F
:1041E0009B018E01C038C06C604460443044304450
:1041F0001844186C0C380000000000000000E001BA
:10420000F0033807180618063003F001F000F80034
:104210009C310E33061E061C061C063FFC73F02163
:10422000000000000000000000000000000000008E
:104230000C000C000C000C000C000C000000000036
:10424000000000000000000000000000000000006E
:10425000000000000000000000000000000000025C
:1042600000038001C000C00060006000300030002A
:10427000300030003000300030003000600060005E
:10428000C000C00080010003000200000000200008
:104290006000C000800180010003000300060006EA
:1042A00000060006000600060006000600030003E4
:1042B00080018001C00060002000000000000000BC
:1042C0000000000000000000C000C000D806F80791
:1042D000E00130033807000000000000000000008B
:1042E00000000000000000000000000000000000CE
:1042F00000000000000000008001800180018001BA
:104300008001FC3FFC3F8001800180018001800131
:10431000000000000000000000000000000000009D
:10432000000000000000000000000000000000008D
:1043300000000000000000000000000000008001FC
:10434000800100010001800000000000000000006A
:10435000000000000000000000000000000000005D
:1043600000000000E007E00700000000000000007F
:10437000000000000000000000000000000000003D
:10438000000000000000000000000000000000002D
:104390000000000000000000000000000000C0005D
:1043A000C000000000000000000000000000000C41
:1043B000000C000600060006000300030003800353
:1043C000800180018001C000C000C000600060006A
:1043D0000000000000000000000000000000E003FA
:1043E000F007380E180C0C180C180C180C180C18B8
:1043F0000C180C180C180C18180C380EF007E003E9
:1044000000000000000000000000000000000001AB
:104410008001C001F00198018801800180018001C4
:104420008001800180018001800180018001800184
:104430000000000000000000000000000000E00399
:10444000F80F180C0C180C1800180018000C0006B7
:1044500000038001C000600030001800FC1FFC1F3A
:104460000000000000000000000000000000E0016B
:10447000F807180E0C0C0C0C000C0006C003C0074B
:10448000000C001800180C180C18180CF807E003A2
:104490000000000000000000000000000000000C10
:1044A000000E000F000F800DC00C600C600C300C73
:1044B000180C0C0CFC3FFC3F000C000C000C000C1A
:1044C0000000000000000000000000000000F80FE5
:1044D000F80F180018000C00EC03FC071C0E001C61
:1044E0000018001800180C181C0C180EF807E00330
:1044F0000000000000000000000000000000C007F5
:10450000F00F381C181818000C00CC03EC0F3C0EF0
:104510001C1C0C180C180C18181C380EF007E003A3
:104520000000000000000000000000000000FC1F70
:10453000FC1F000C00060006000380038001C00180
:10454000C000E0006000600070003000300030000B
:104550000000000000000000000000000000E00378
:10456000F007380E180C180C180C3806F007F00776
:10457000180C0C180C180C180C18380CF80FE00359
:104580000000000000000000000000000000E00348
:10459000F007380E1C0C0C180C180C181C1C381EBC
:1045A000F81BE0190018000C000C1C0EF807F001B5
:1045B00000000000000000000000000000000000FB
:1045C00000000000000000008001800100000000E9
:1045D00000000000000000000000000080018001D9
:1045E00000000000000000000000000000000000CB
:1045F00000000000000000008001800100000000B9
:1046000000000000000000000000000080018001A8
:104610000001000180000000000000000000000018
:104620000000000000000000000000000010001C5E
:10463000800FE003F8001800F800E003800F001C72
:10464000001000000000000000000000000000005A
:10465000000000000000000000000000F81F000043
:1046600000000000F81F0000000000000000000033
:10467000000000000000000000000000000000003A
:1046800000000000000000000000000008003800EA
:10469000F001C007001F0018001FC007F00138001C
:1046A0000800000000000000000000000000E0031F
:1046B000F80F180C0C180C180018000C000600035A
:1046C0008001C000C000C00000000000C000C000A9
:1046D00000000000000000000000000000000000DA
:1046E000E00718180420C229224A11440944094449
:1046F000094409221113E20C024004201818E007B3
:104700000000000000000000000000000000800326
:104710008003C006C006C006600C600C301830185C
:104720003018F83FF83F1C700C600C6006C006C0E3
:104730000000000000000000000000000000FC037A
:10474000FC0F0C0C0C180C180C180C0CFC07FC0FB4
:104750000C180C300C300C300C300C18FC1FFC0703
:104760000000000000000000000000000000C00782
:10477000F01F38381C300C7006600600060006007A
:1047800006000600060006600C701C30F01FE007F3
:104790000000000000000000000000000000FE0318
:1047A000FE0F060E061806180630063006300630D4
:1047B00006300630063006180618060EFE0FFE03F9
:1047C0000000000000000000000000000000FC3FAE
:1047D000FC3F0C000C000C000C000C00FC1FFC1F2C
:1047E0000C000C000C000C000C000C00FC3FFC3F0B
:1047F0000000000000000000000000000000F83F82
:10480000F83F18001800180018001800F81FF81FCB
:1048100018001800180018001800180018001800D8
:104820000000000000000000000000000000E00F99
:10483000F83F3C780E6006E007C00300030003FE6B
:1048400003FE03C007C006C00EC03CF0F83FE00FF7
:1048500000000000000000000000000000000C301C
:104860000C300C300C300C300C300C30FC3FFC3F6A
:104870000C300C300C300C300C300C300C300C3058
:1048800000000000000000000000000000008001A7
:104890008001800180018001800180018001800110
:1048A0008001800180018001800180018001800100
:1048B00000000000000000000000000000000006F2
:1048C00000060006000600060006000600060006B8
:1048D000000600060006180618063807F003E00177
:1048E0000000000000000000000000000000063092
:1048F0000618060C060606038601C600660076004A
:10490000DE008E0106030606060C06180630066059
:10491000000000000000000000000000000018007F
:1049200018001800180018001800180018001800C7
:10493000180018001800180018001800F81FF81FB9
:1049400000000000000000000000000000000EE079
:104950001EF01EF01EF036D836D836D836D866CCC3
:1049600066CC66CCC6C6C6C6C6C6C6C686C386C321
:1049700000000000000000000000000000000C30FB
:104980001C303C303C306C306C30CC30CC308C3116
:104990000C330C330C360C360C3C0C3C0C380C3005
:1049A0000000000000000000000000000000E00720
:1049B000F81F1C380E70066003C003C003C003C09C
:1049C00003C003C003C006600E701C38F81FE00768
:1049D0000000000000000000000000000000FC0FCC
:1049E000FC1F0C380C300C300C300C300C18FC1F39
:1049F000FC070C000C000C000C000C000C000C0060
:104A00000000000000000000000000000000E007BF
:104A1000F81F1C380E70066003E003C003C003C01B
:104A200003C003C007E006630E3F1C3CF83FE0F7FD
:104A300000C0000000000000000000000000FE0FA9
:104A4000FE1F06380630063006300638FE1FFE0709
:104A500006030606060C0618061806300630066021
:104A60000000000000000000000000000000E00363
:104A7000F80F1C0C0C180C180C001C00F803E00FAD
:104A8000001E0038063006300E301C1CF80FE00700
:104A90000000000000000000000000000000FE7F99
:104AA000FE7F800180018001800180018001800102
:104AB00080018001800180018001800180018001EE
:104AC00000000000000000000000000000000C30AA
:104AD0000C300C300C300C300C300C300C300C30F6
:104AE0000C300C300C300C300C301818F81FE0076C
:104AF0000000000000000000000000000000036053
:104B00000630063006300C180C180C18180C180C4F
:104B1000380E30063006700760036003C001C00124
:104B20000000000000000000000000000000036022
:104B3000C361C361C361663366336633663366330C
:104B400066336C1B6C1B6C1B2C1A3C1E380E380E0B
:104B500000000000000000000000000000000FE066
:104B60000C7018303018700C600EC0078003800382
:104B7000C003E006700C301C18180C300E6007E003
:104B8000000000000000000000000000000003C062
:104B900006600C301C383818300C6006E007C00383
:104BA00080018001800180018001800180018001FD
:104BB0000000000000000000000000000000FC7F7A
:104BC000FC7F006000300018000C0006000380012C
:104BD000C0006000300018000C000600FE7FFE7F61
:104BE0000000000000000000000000000000E003E2
:104BF000E003600060006000600060006000600032
:104C000060006000600060006000600060006000A4
:104C1000600060006000E003E0030000000030007E
:104C20003000600060006000C000C000C000C00133
:104C300080018001800100030003000300060006DC
:104C40000000000000000000000000000000E00381
:104C5000E00300030003000300030003000300035C
:104C6000000300030003000300030003000300032C
:104C7000000300030003E003E00300000000000065
:104C8000C001C00160036003600330063006180CE9
:104C9000180C0000000000000000000000000000F0
:104CA0000000000000000000000000000000000004
:104CB00000000000000000000000000000000000F4
:104CC0000000000000000000000000000000FFFFE6
:104CD000FFFF0000000000000000000000000C00CA
:104CE0000C000C000C000C000C0000000000000088
:104CF00000000000000000000000000000000000B4
:104D000000000000000000000000000000000000A3
:104D10000000000000000000F003F8071C0C0C0C61
:104D2000000FF00FF80C0C0C0C0C1C0FF80FF01807
:104D3000000000000000000000000000000018005B
:104D40001800180018001800D803F80F380C1818AD
:104D500018181818181818181818380CF80FD8033D
:104D60000000000000000000000000000000000043
:104D70000000000000000000C003F007300E180C17
:104D80001800180018001800180C300EF007C003A7
:104D900000000000000000000000000000000018FB
:104DA0000018001800180018C01BF01F301C18183D
:104DB00018181818181818181818301CF01FC01BCD
:104DC00000000000000000000000000000000000E3
:104DD0000000000000000000C003F00F300C1818A5
:104DE000F81FF81F180018003818301CF00FC00703
:104DF0000000000000000000000000000000800F24
:104E0000C00FC000C000C000F007F007C000C00025
:104E1000C000C000C000C000C000C000C000C00092
:104E20000000000000000000000000000000000082
:104E30000000000000000000E00DF80F180E0C0C40
:104E40000C0C0C0C0C0C0C0C0C0C180EF80FE00DD0
:104E5000000C0C0C1C06F807F00100000000180004
:104E60001800180018001800D807F80F381C181878
:104E700018181818181818181818181818181818B2
:104E80000000000000000000000000000000C00062
:104E9000C000000000000000C000C000C000C00052
:104EA000C000C000C000C000C000C000C000C00002
:104EB0000000000000000000000000000000C00032
:104EC000C000000000000000C000C000C000C00022
:104ED000C000C000C000C000C000C000C000C000D2
:104EE000C000C000C000F8007800000000000C0006
:104EF0000C000C000C000C000C0C0C060C038C01BC
:104F0000CC006C00FC009C018C030C030C060C0C08
:104F10000000000000000000000000000000C000D1
:104F2000C000C000C000C000C000C000C000C00081
:104F3000C000C000C000C000C000C000C000C00071
:104F40000000000000000000000000000000000061
:104F500000000000000000007C3CFF7EC7E383C12E
:104F600083C183C183C183C183C183C183C183C121
:104F70000000000000000000000000000000000031
:104F800000000000000000009807F80F381C1818F7
:104F90001818181818181818181818181818181891
:104FA0000000000000000000000000000000000001
:104FB0000000000000000000C003F00F300C1818C3
:104FC00018181818181818181818300CF00FC003F3
:104FD00000000000000000000000000000000000D1
:104FE0000000000000000000D803F80F380C18186B
:104FF00018181818181818181818380CF80FD8039B
:105000001800180018001800180000000000000028
:105010000000000000000000C01BF01F301C18182A
:1050200018181818181818181818301CF01FC01B5A
:1050300000180018001800180018000000000000F8
:105040000000000000000000B007F0037000300016
:1050500030003000300030003000300030003000D0
:105060000000000000000000000000000000000040
:105070000000000000000000E003F003380E180CF0
:105080003800F003C007000C180C380EF007E003DE
:105090000000000000000000000000000000000010
:1050A0008000C000C000C000F007F007C000C000D2
:1050B000C000C000C000C000C000C000C007800722
:1050C00000000000000000000000000000000000E0
:1050D0000000000000000000181818181818181810
:1050E00018181818181818181818381CF01FE01974
:1050F00000000000000000000000000000000000B0
:1051000000000000000000000C18180C180C180C0F
:10511000300630063006600360036003C001C00142
:10512000000000000000000000000000000000007F
:105130000000000000000000C141C141C361636381
:10514000636363633636363636361C1C1C1C1C1CE7
:10515000000000000000000000000000000000004F
:1051600000000000000000001C38381C300C6006F5
:1051700060036003600360036006300C381C1C3859
:10518000000000000000000000000000000000001F
:1051900000000000000000001830301830187018AF
:1051A000600C600CE00CC006C00680038003800326
:1051B00080018001C001F0007000000000000000CC
:1051C0000000000000000000FC1FFC1F000C000697
:1051D00000038001C000600030001800FC1FFC1FAD
:1051E00000000000000000000000000000000003BC
:1051F0008001C000C000C000C000C000C00060004E
:105200006000300060004000C000C000C000C0006E
:10521000C000C00080010003000000000000800109
:105220008001800180018001800180018001800176
:105230008001800180018001800180018001800166
:105240008001800180018001800100000000600079
:10525000C000C00180018001800180018001000345
:10526000000300060003000180018001800180012D
:1052700080018001C000600000000000000000000C
:10528000000000000000000000000000F010F81F07
:10529000080F0000000000000000000000000000F7
:1052A00000000000000000000000000048E1FA3E9D
:1052B000CDCC4C3D0AD7A33B6F12033A17B75138F8
:1052C000ACC5A736010002000400060008000A0071
:1052D0000C001000200040008000000101010103CB
:1052E0000701000008040204080101010000000099
:1052F0000000000001020304060708090000000086
:105300000102030424530008000000202C000000C8
:10531000D23D0008505300082C00002084060000F5
:10532000E23D000800FF0000000000000000000057
:105330000000FFFFFF0000007B000000FFFF0000F7
:105340001000000001000000000000000024F40034
:04000005080001D915
:00000001FF
